:020000001028C6
:10000800FE00030EF2000408F3000A08F40083124D
:1000180003137F08F500262A112883135E30FD009C
:100028000230FE009A30FF0042308400D622F601EA
:10003800F701F801F9018301212883160313010848
:10004800F83903388100811281118B170730831228
:100058000313B80038089F04013090008601F0307F
:100068008316031386000130831203138600831658
:1000780003138501831203138501BD01BE012030DE
:10008800B8003808BA00BB01BC01BF01C001532940
:1000980030304102031C53293A30410203185329D6
:1000A80041085422831203134108D03EBF00FF3099
:1000B80003180030C000013050296330410603198D
:1000C8002F292B304106031947292D3041060319E2
:1000D80047292A304106031947292F3041060319B9
:1000E80047293D304106031D53293B083C040319A9
:1000F8007F2845308328831203133F08303E54225B
:10010800033083120313BD000030BE00E1225329DF
:100118003030831203134102031CFC283A30410299
:100128000318FC2841085422013083120313BD0030
:100138000030BE003B083C04031D5329ED2841084C
:10014800D03EB800FF3003180030B9003808BF07A8
:100158000318C00A3908C00753294108D03EB8001F
:10016800FF3003180030B9003808BF023908031CF3
:10017800C003C00253294108D03EA000FF30031835
:100188000030A1004008A3003F08A2007722831294
:1001980003132108C0002008EB2830304106031D56
:1001A800DA280130BB000030BC0053294108D03E9A
:1001B800A000FF3003180030A1004008A3003F084A
:1001C800A200E821831203132108C0002008BF0001
:1001D80053293A082A3A0319BF28013A0319A328D0
:1001E800063A0319B128023A0319D1285329532989
:1001F8002B30410603190C292D30410603190C290F
:100208002A30410603190C292F304106031D1529F0
:100218002D305422831203134108B8003808BA005D
:1002280053296330410603192F293D304106031D28
:1002380053293F08303E5422033083120313BD0074
:100248000030BE00E12253296330831203134106B4
:10025800031D3629ED222030542283120313BD01D9
:10026800BE0153292B304106031946292D3041067A
:10027800031946292A304106031946292F30410619
:10028800031D5329ED222D305422831203134108F4
:10029800B8003808BA000230BD000030BE006A213C
:1002A80083120313B8003808C1003E08003A031946
:1002B8005E2953293D088400043004020318532999
:1002C80002308A00E930040782005329283084006C
:1002D800423083120313A4000408A5001030A600BE
:1002E8002408840083130008A700A40A25088400B2
:1002F80027088000A50AA60B74290D308312031362
:10030800A500FB30A400A40B8729A50B87290000B2
:10031800031083120313860D0608031D9529013067
:100328008600061EA929B622831203132008A400FA
:1003380001300310A40DFF3E031D9D290310240D59
:10034800283E8400831300080800861EBE29B622B2
:10035800831203132008A40001300310A40DFF3EEC
:10036800031DB1290310240D013E283E8400831388
:1003780000080800061FD329B62283120313200899
:10038800A40001300310A40DFF3E031DC62903106D
:10039800240D023E283E8400831300080800861FAF
:1003A8008129B622831203132008A4000130031008
:1003B800A40DFF3E031DDB290310240D033E283E38
:1003C800840083130008080083120313A601A70101
:1003D800200821040319212AA501A50AA11B002A26
:1003E80001300310A00DA10DFF3E031DF5290130BA
:1003F800A4002408A507F22901300310A60DA70DB3
:10040800FF3E031D012A21082302031D0D2A20088F
:100418002202031C162A2008A2022108031CA30397
:10042800A302261401300310A10CA00CFF3E031DEB
:10043800172A0130A502031D002A2708A100260853
:10044800A00008000130F6070318F70A0030F70784
:1004580006308100E8307606033003197706031D5D
:100468003D2A0508F000F1017008F8007108F9004C
:100478008501DC307606053003197706031D482A06
:10048800F601F701780885000B117508FF0074085C
:100498008A0073088400720E8300FE0E7E0E090027
:1004A80083120313A00030302002031C662A3A305E
:1004B80020020318662A2008D03E523E8400831387
:1004C80000088500203020060319850145302006E4
:1004D800031D702A5D0885002D302006031D0800C5
:1004E8005C088500080083120313A401A501201CE1
:1004F800832A2208A4070318A50A2308A5070130A0
:100508000310A20DA30DFF3E031D842A0130031022
:10051800A10CA00CFF3E031D8B2A20082104031DFB
:100528007B2A2508A1002408A000080037343834A5
:1005380039342F343434353436342A34313432347F
:1005480033342D34303463343D342B345F34063443
:100558009B348F34C634CD34DD340734DF34CF34A4
:100568008034D93483120313A201A301061CBF2AC5
:10057800A201A301CD2A861CC32A0130CA2A061D5E
:10058800C72A0230CA2A861DCD2A0330A2000030AD
:10059800A3002308A1002208A00008007E088A0002
:1005A8007F088200D2228000840A04087D0603198D
:1005B8000034FF0A0319FE0AD62AF601F7010630AD
:1005C8008312031381008B1608004C2861288C289D
:0605D80028298B12080027
:02400E00F8FFB9
:00000001FF
