:020000001028C6
:10000800FE00030EF2000408F3000A08F40083124D
:1000180003137F08F500492A112883135E30FD0079
:100028000230FE00BD30FF0042308400F922F601A4
:10003800F701F801F9018301212883160313010848
:10004800F83903388100811281118B170730831228
:100058000313B80038089F04013090008601F0307F
:100068008316031386000130831203138600831658
:1000780003138501831203138501BD01BE012030DE
:10008800B8003808BA00BB01BC01BF01C00175291E
:1000980030304102031C75293A3041020318752992
:1000A8004108772283120313BB01BC014108D03EEB
:1000B800BF00FF3003180030C000013072296330E0
:1000C8004106031951292B304106031969292D309E
:1000D8004106031969292A304106031969292F3075
:1000E8004106031969293D304106031D75293B085E
:1000F8003C040319C01B8B284008803AFF0080305D
:100108007F02031D89280A303F02031C8D284530D1
:100118009128831203133F08303E7722033083125D
:100128000313BD000030BE0004237529303083124C
:1001380003134102031C0A293A30410203180A2911
:1001480041087722013083120313BD000030BE003E
:100158003B083C04031D7529FB284108D03EB80024
:10016800FF3003180030B9003808BF070318C00A69
:100178003908C00775294108D03EB800FF30031878
:100188000030B9003808BF023908031CC003C00298
:1001980075294108D03EA000FF3003180030A100A7
:1001A8004008A3003F08A2009A22831203132108E3
:1001B800C0002008F92830304106031DE828013026
:1001C800BB000030BC0075294108D03EA000FF30BC
:1001D80003180030A1004008A3003F08A2000B222A
:1001E800831203132108C0002008BF0075293A08AC
:1001F8002A3A0319CD28013A0319B128063A0319F6
:10020800BF28023A0319DF28752975292B304106C2
:1002180003191A292D30410603191A292A304106D3
:1002280003191A292F304106031D23292D3077225F
:10023800831203134108B8003808BA0075296330DF
:100248004106031951293D304106031D75293B0814
:100258003C040319C01B3B294008803AFF0080304A
:100268007F02031D39290A303F02031C3D2945300E
:100278004129831203133F08303E7722033083124B
:100288000313BD000030BE000423752963308312B8
:1002980003134106031D58291023203077228312A7
:1002A8000313BD01BE0175292B30410603196829C6
:1002B8002D304106031968292A3041060319682997
:1002C8002F304106031D752910232D307722831204
:1002D80003134108B8003808BA000230BD000030E6
:1002E800BE008C2183120313B8003808C1003E08F1
:1002F800003A0319802975293D0884000430040256
:100308000318752903308A000C3004078200752908
:1003180028308400423083120313A4000408A50087
:100328001030A6002408840083130008A700A40A3C
:100338002508840027088000A50AA60B96290D30F9
:1003480083120313A500FB30A400A40BA929A50B55
:10035800A9290000031083120313860D06080F391C
:10036800031DB82901308600061ECC29D922831224
:1003780003132008A40001300310A40DFF3E031D41
:10038800C0290310240D283E8400831300080800A8
:10039800861EE129D922831203132008A400013004
:1003A8000310A40DFF3E031DD4290310240D013EA4
:1003B800283E8400831300080800061FF629D92266
:1003C800831203132008A40001300310A40DFF3E7C
:1003D800031DE9290310240D023E283E84008313DF
:1003E80000080800861FA329D922831203132008B6
:1003F800A40001300310A40DFF3E031DFE290310C5
:10040800240D033E283E840083130008080083124D
:100418000313A601A701200821040319442AA501F2
:10042800A50AA11B232A01300310A00DA10DFF3E30
:10043800031D182A0130A4002408A507152A013035
:100448000310A60DA70DFF3E031D242A2108230231
:10045800031D302A20082202031C392A2008A20280
:100468002108031CA303A302261401300310A10CC6
:10047800A00CFF3E031D3A2A0130A502031D232AC2
:100488002708A1002608A00008000130F607031875
:10049800F70A0030F70706308100E83076060330A7
:1004A80003197706031D602A0508F000F10170089A
:1004B800F8007108F9008501DC307606053003196B
:1004C8007706031D6B2AF601F701780885000B11E2
:1004D8007508FF0074088A0073088400720E830090
:1004E800FE0E7E0E090083120313A0003030200296
:1004F800031C892A3A3020020318892A2008D03E92
:10050800523E84008313000885002030200603191A
:10051800850145302006031D932A5D0885002D308E
:100528002006031D08005C088500080083120313D9
:10053800A401A501201CA62A2208A4070318A50ABD
:100548002308A50701300310A20DA30DFF3E031DCC
:10055800A72A01300310A10CA00CFF3E031DAE2AF0
:1005680020082104031D9E2A2508A1002408A000B4
:1005780008003734383439342F3434343534363489
:100588002A343134323433342D34303463343D3406
:100598002B345F3406349B348F34C634CD34DD3489
:1005A8000734DF34CF348034D93483120313A201E3
:1005B800A301061CE22AA201A301F02A861CE62A4E
:1005C8000130ED2A061DEA2A0230ED2A861DF02A9E
:1005D8000330A2000030A3002308A1002208A000D5
:1005E80008007E088A007F088200F5228000840ABD
:1005F80004087D0603190034FF0A0319FE0AF92AC4
:10060800F601F70106308312031381008B160800E8
:0C0618004C2863289A284A298B120800FD
:02400E0078FF39
:00000001FF
